:1000000090009074FF75900075B0FFC2B020B404EA
:100010007400118C20B5047401118C20B604740294
:10002000118C20B7047403118CD2B0C2B120B40477
:100030007404118C20B5047405118C20B604740668
:10004000118C20B7047407118CD2B1C2B220B40451
:100050007408118C20B5047409118C20B604740A3C
:10006000118C20B704740B118CD2B2C2B320B4042B
:10007000740C118C20B504740D118C20B604740E10
:10008000118C20B783740F118C02000893F5902215
:10009000E0FEF69C66B6BE3E60DAF2EE9EFC8E7A1C
:00000001FF
