:03000000020030CB
:0F00300075A00075B000312F900300E475400AF1
:0F003F0075430A75461475491478237E1E7F2871
:0F004E00E54075F00A84F54185F042D2B0C2B1A9
:10005D00E54193F5A0312675B000D2B1C2B0E542AD
:0E006D0093F5A0312675B000800280D5E543E2
:10007B0075F00A84F54485F045D2B2C2B3E54493DA
:10008B00F5A0312675B000D2B3C2B2E54593F5A009
:10009B00312675B000E54675F00A84F54785F048C2
:1000AB00D2B4C2B5E54793F5A0312675B000D2B5F1
:0E00BB00C2B4E54893F5A0312675B000E549C2
:1000C90075F00A84F55085F051D2B6C2B7E5509360
:1000D900F5A0312675B000D2B7C2B6E55193F5A0A7
:0F00E900312675B000D8877823D54003754014B1
:0E00F800D5430575430A3136D54606754314C7
:0F01060075460AD5490575490A313DDE0B31446E
:0E01150075400A75430A75461EDF030200306E
:0F01230002004E7C057DFFDDFEDCFA2275905454
:0E013200758002227590A175800222759009D9
:0B0140007580052275904A758008222A
:0A030000C0F9A4B0999282F8809031
:00000001FF
